:100000000C9463000C948B000C948B000C948B006C
:100010000C948B000C948B000C948B000C94B70404
:100020000C948B000C948B000C948B000C948B0024
:100030000C948B000C948B000C948B000C948B0014
:100040000C9413050C948B000C948B000C948B0077
:100050000C948B000C948B000C948B000C948B00F4
:100060000C948B000C948B000000000024002700EF
:100070002A0000000000250028002B0000000000DE
:1000800023002600290004040404040404040202DA
:100090000202020203030303030301020408102007
:1000A0004080010204081020010204081020000012
:1000B0000008000201000003040700000000000027
:1000C00000000200970711241FBECFEFD8E0DEBF6B
:1000D000CDBF11E0A0E0B1E0EEEBFFE002C0059083
:1000E0000D92AC39B107D9F721E0ACE9B1E001C01C
:1000F0001D92A63DB207E1F710E0C3E6D0E004C0D0
:100100002197FE010E94D707C236D107C9F70E9486
:100110005D050C94DD070C940000AF92BF92CF9266
:10012000DF92EF92FF920F931F93CF93DF936C01B7
:100130007B018B01040F151FEB015E01AE18BF0898
:10014000C017D10759F06991D601ED91FC9101904A
:10015000F081E02DC6010995892B79F7C501DF9162
:10016000CF911F910F91FF90EF90DF90CF90BF90B4
:10017000AF900895833081F028F4813099F0823077
:10018000A9F008958730A9F08830C9F08430B1F41F
:10019000809180008F7D03C0809180008F77809355
:1001A0008000089584B58F7784BD089584B58F7DD0
:1001B000FBCF8091B0008F778093B000089580913D
:1001C000B0008F7DF9CFCF93DF93282F30E0F90176
:1001D000E255FF4F8491F901E656FF4FD491F901A2
:1001E000EA57FF4FC491CC23A1F081110E94BA00BD
:1001F000EC2FF0E0EE0FFF1FE458FF4FA591B491F4
:10020000EC91ED2381E090E009F480E0DF91CF9163
:10021000089580E090E0FACF1F93CF93DF93282FCB
:1002200030E0F901E255FF4F8491F901E656FF4FA6
:10023000D491F901EA57FF4FC491CC23A9F0162FAE
:1002400081110E94BA00EC2FF0E0EE0FFF1FEE5874
:10025000FF4FA591B4918FB7F894EC91111108C09C
:10026000D095DE23DC938FBFDF91CF911F9108954E
:10027000DE2BF8CF9091000189130BC0E2ECF0E087
:10028000E4919FEF90930001E13049F028F0E230D3
:1002900061F060E00C940C0110926E00FACF909126
:1002A0006F009D7F90936F00F4CF909170009D7FC1
:1002B0009093700091E09093B0009091B100987F7E
:1002C00094609093B1001092B300E3CFCF93DF938B
:1002D00090E0FC01E656FF4F24918A579F4FFC01A6
:1002E00084918823D1F090E0880F991FFC01E85990
:1002F000FF4FA591B491FC01EE58FF4FC591D491E9
:1003000061110EC09FB7F8948C91E22FE0958E2377
:100310008C932881E223E8839FBFDF91CF910895DA
:100320008FB7F894EC91E22BEC938FBFF6CF3FB7E9
:10033000F8948091AB019091AC01A091AD01B09186
:10034000AE0126B5A89B05C02F3F19F00196A11D4F
:10035000B11D3FBFBA2FA92F982F8827BC01CD010F
:10036000620F711D811D911D42E0660F771F881F6E
:10037000991F4A95D1F708958F929F92AF92BF929D
:10038000CF92DF92EF92FF924B015C010E949701A6
:100390006B017C010E9497016C197D098E099F09F0
:1003A000683E734081059105A8F321E0821A910807
:1003B000A108B10888EEC80E83E0D81EE11CF11C2C
:1003C00081149104A104B10429F7FF90EF90DF900C
:1003D000CF90BF90AF909F908F900895089590E038
:1003E00080E00895CF9380910001893061F08F3FC4
:1003F00099F164E670E080E090E00E94BC0189E041
:10040000CF910C943A01E2ECF0E0C491C7FDF1CF3A
:1004100061E089E00E946601CC2309F48CC0C230FF
:1004200009F0A0C08091B100887F83608093B10003
:1004300089EF8093B3008FEF9FEFDC018093B201CF
:100440009093B301A093B401B093B5018091700073
:10045000826080937000CDCF89E080930001E2EC50
:10046000F0E0C491CF3F09F4C4CFC13021F150F086
:10047000C23009F43EC0C7FDBCCF61E089E00E94F4
:100480006601CDCF14BC15BC84B5826084BD85B532
:10049000816085BDEFE8F0E0E491F0E0EE0FFF1F32
:1004A000EE58FF4F85919491E3EAF0E0E491E093F8
:1004B0009D01C0E0ADCF109280001092810080912C
:1004C00081008860809381008091810081608093A9
:1004D0008100EFE8F0E0E491F0E0EE0FFF1FEE584E
:1004E000FF4F85919491E3EAF0E0E491E0939C0161
:1004F0008FCF1092B0001092B1008091B000826056
:100500008093B0008091B10081608093B100EFE8EA
:10051000F0E0E491F0E0EE0FFF1FEE58FF4F859101
:1005200094919093B0018093AF01E3EAF0E0E491FD
:10053000E093B1016DCF85B5887F836085BD8CE781
:1005400087BD8FEF9FEFDC018093A2019093A30101
:10055000A093A401B093A50180916E008260809366
:100560006E0047CFC130E9F480918100887F8160BF
:10057000809381008FE39FE19093890080938800AE
:100580008FEF9FEFDC0180939E0190939F01A093DA
:10059000A001B093A10180916F00826080936F00F1
:1005A00028CFC23021F0C11124CF8FE3C9CF8FE310
:1005B00040CF8F929F92AF92BF920F931F93CF9392
:1005C000DF93CDB7DEB7A1970FB6F894DEBF0FBEAD
:1005D000CDBF19A2423008F44AE08E010F5D1F4FD3
:1005E000842E912CB12CA12CA50194010E94B50759
:1005F000E62FB901CA01EA3044F5E05DD801EE9377
:100600008D01232B242B252B79F790E080E0109788
:1006100069F0FD0101900020E9F73197AF014A1B15
:100620005B0BBD018EEB91E00E948D00A1960FB691
:10063000F894DEBF0FBECDBFDF91CF911F910F9118
:10064000BF90AF909F908F900895E95CD7CFFC0149
:1006500001900020E9F73197AF01481B590BBC010D
:100660008EEB91E00C948D00CF93DF93EC0160E072
:100670008E810E940C0161E08E810E940C0160E07D
:100680008E810E940C018BE891E00197F1F7DF91D8
:10069000CF910895CF92DF92EF92FF920F931F9325
:1006A000CF93DF936C017C0187E0E80EF11CD0E072
:1006B000C0E0062F10E0B8010C2E02C075956795BA
:1006C0000A94E2F76170F70181917F010E940C01A9
:1006D0002196C430D10579F7C601DF91CF911F91E2
:1006E0000F91FF90EF90DF90CF900C943403CF9256
:1006F000DF92EF92FF920F931F93CF93DF93EC0162
:10070000F62E642F8C810E940C018D818F3F19F091
:1007100060E00E940C010F2D10E08F8584FF25C042
:100720006E0187E0C80ED11CF12CE12CB8010E2C13
:1007300002C0759567950A94E2F76170F6018191A0
:100740006F010E940C01FFEFEF1AFF0A88E0E81624
:10075000F10461F7CE01DF91CF911F910F91FF90CE
:10076000EF90DF90CF900C943403B80184E075953E
:1007700067958A95E1F7CE010E944A036F2DCE015D
:10078000DF91CF911F910F91FF90EF90DF90CF906D
:100790000C944A0340E0682F8EEB91E00C947703B1
:1007A00081E00E94CA038BE39FE10197F1F708956E
:1007B000CF93DF93823029F49091CD01986090938C
:1007C000CD018093D1011092D20180E48093D301B6
:1007D00080E18093D40180E58093D50161E0809130
:1007E000C2010E9466018091C3018F3F19F061E050
:1007F0000E94660161E08091C4010E946601CEEB17
:10080000D1E09E012E5B31408091CD0184FD0BC073
:1008100084E090E021962817390744F461E08E8146
:100820000E946601EECF88E090E0F4CF8BE39DE07C
:100830000197F1F760E08091C2010E940C0160E035
:100840008091C4010E940C018091C3018F3F19F077
:1008500060E00E940C018091CD0184FD34C063E012
:100860008EEB91E00E944A03CBE4D6E4CE010197DF
:10087000F1F763E08EEB91E00E944A032197F1F7D4
:1008800063E08EEB91E00E944A0383E592E00197DA
:10089000F1F762E08EEB91E00E944A038091CD0176
:1008A00080620E94CA0384E08093CE018CE00E94A3
:1008B000CA030E94D00382E08093CF0186E0DF91DB
:1008C000CF910C94CA0380620E94CA038BE496E421
:1008D0000197F1F78091CD0180620E94CA0383E500
:1008E00092E00197F1F78091CD0180620E94CA03E6
:1008F000D5CF9091D101691710F06FEF690FE62FF6
:10090000F0E0E254FE4F9489890F80680C94CA038A
:1009100041E00E94770381E090E00895CF92DF925A
:10092000EF92FF926C01990FEE08FF08F7FE16C0D8
:1009300041E06DE28EEB91E00E9477036627772716
:10094000CB016C197D098E099F094AE00E94D902EA
:100950000196FF90EF90DF90CF9008954AE0C70195
:10096000B601FF90EF90DF90CF900C94D9021F92C8
:100970000F920FB60F9211242F933F934F935F93D3
:100980006F937F938F939F93AF93BF93EF93FF9357
:100990008091B2019091B301A091B401B091B501E1
:1009A000892B8A2B8B2BD1F19091B101E091AF0172
:1009B000F091B0018081892780838091B20190916C
:1009C000B301A091B401B091B501181619061A0629
:1009D0001B069CF48091B2019091B301A091B401E7
:1009E000B091B5010197A109B1098093B20190932B
:1009F000B301A093B401B093B501FF91EF91BF9102
:100A0000AF919F918F917F916F915F914F913F91A6
:100A10002F910F900FBE0F901F901895809100019D
:100A20000E943A01EACF1F920F920FB60F92112443
:100A30002F933F938F939F93AF93BF938091A70181
:100A40009091A801A091A901B091AA013091A601AD
:100A500023E0230F2D3758F50196A11DB11D2093DA
:100A6000A6018093A7019093A801A093A901B09338
:100A7000AA018091AB019091AC01A091AD01B09120
:100A8000AE010196A11DB11D8093AB019093AC0105
:100A9000A093AD01B093AE01BF91AF919F918F91A3
:100AA0003F912F910F900FBE0F901F90189526E841
:100AB000230F0296A11DB11DD2CF789484B5826018
:100AC00084BD84B5816084BD85B5826085BD85B5F2
:100AD000816085BD80916E00816080936E00109270
:100AE00081008091810082608093810080918100EB
:100AF000816080938100809180008160809380007C
:100B00008091B10084608093B1008091B0008160D9
:100B10008093B00080917A00846080937A00809105
:100B20007A00826080937A0080917A00816080935D
:100B30007A0080917A00806880937A001092C100D8
:100B400060E08FE00E94660160E080E10E94660143
:100B500060E081E10E94660160E082E10E9466013E
:100B600060E083E10E94660161E089E00E94660125
:100B700082E00E94D8038DE091E00E9427030E944A
:100B8000F20161E08FE00E940C0161E080E10E94CF
:100B90000C0161E081E10E940C0161E082E10E94B0
:100BA0000C0161E083E10E940C010E94D00300E08F
:100BB00010E060E080E00E9479048CE191E00E9406
:100BC000270361E080E00E94790480E291E00E94C6
:100BD000270360E084E00E94790484E291E00E94AF
:100BE000270361E084E00E94790480E291E00E94A2
:100BF000270360E088E00E94790488E291E00E9487
:100C0000270361E088E00E94790480E291E00E947D
:100C1000270360E08CE00E9479048CE291E00E945E
:100C2000270361E08CE00E94790480E291E00E9459
:100C300027038FE00E94E300892B81F40E94F201D8
:100C40008091BC019091BD0101969093BD0180936C
:100C5000BC018FE00E94E300892BD9F380E10E9460
:100C6000E300892B81F40E94F2018091BA019091F6
:100C7000BB0101969093BB018093BA0180E10E9471
:100C8000E300892BD9F381E10E94E300892B81F4F1
:100C90000E94F2018091B8019091B9010196909360
:100CA000B9018093B80181E10E94E300892BD9F357
:100CB00082E10E94E300892B81F40E94F20180917D
:100CC000B6019091B70101969093B7018093B60158
:100CD00082E10E94E300892BD9F383E10E94E300C3
:100CE000892B09F0B9C0C091BC01D091BD018091A0
:100CF000BA019091BB01C80FD91F8091B8019091A2
:100D0000B901C80FD91F8091B6019091B701C80FE2
:100D1000D91F0E94D00360E080E00E9479048CE13A
:100D200091E00E94270361E081E00E9479048091B4
:100D3000BC019091BD010E948E0460E084E00E949D
:100D4000790484E291E00E94270361E085E00E943B
:100D500079048091BA019091BB010E948E0460E0F9
:100D600088E00E94790488E291E00E94270361E014
:100D700089E00E9479048091B8019091B9010E94A4
:100D80008E0460E08CE00E9479048CE291E00E9485
:100D9000270361E08DE00E9479048091B601909173
:100DA000B7010E948E0468EE73E080E090E00E943C
:100DB000BC010E94D003CD2B09F4B4C06091BC01EA
:100DC0007091BD014091BA015091BB018091B80171
:100DD0009091B9012091B6013091B701461757079C
:100DE0000CF041C0861797070CF055C0261737073F
:100DF0000CF051C00E94D00380E391E00E942703D1
:100E000061E080E00E9479048091BC019091BD0175
:100E10000E948E0461E084E00E9479048EE391E0F8
:100E20000E94270360ED77E080E090E00E94BC0123
:100E30000E94D0031092BD011092BC011092BB0120
:100E40001092BA011092B9011092B8011092B70134
:100E50001092B6010E94D0030115110509F4A9CE24
:100E60000E940000A6CE64177507ACF4841795079E
:100E700094F4241735077CF40E94D00384E491E0B5
:100E80000E94270361E080E00E9479048091BA010A
:100E90009091BB01BDCF68177907ACF4481759078B
:100EA00094F4281739077CF40E94D00382E591E07E
:100EB0000E94270361E080E00E9479048091B801DC
:100EC0009091B901A5CF62177307CCF4421753076D
:100ED000B4F4821793079CF460E080E00E947904E8
:100EE0000E94D00380E691E00E94270361E080E049
:100EF0000E9479048091B6019091B70189CF0E9438
:100F0000D0038EE691E00E94270361E080E00E941A
:100F100079048EE791E00E94270368EE73E080E099
:100F200090E084CF0E94D0038EE891E0F4CFEEEB06
:100F3000F1E01382128285E091E0918380838CE05E
:100F400084838FEF85838BE0868385E0878384E0CD
:100F5000808783E0818782E08287138614861586E6
:100F60001686178681E00C94D803A1E21A2EAA1BDC
:100F7000BB1BFD010DC0AA1FBB1FEE1FFF1FA21749
:100F8000B307E407F50720F0A21BB30BE40BF50B46
:100F9000661F771F881F991F1A9469F760957095CF
:100FA000809590959B01AC01BD01CF010895EE0F96
:0E0FB000FF1F0590F491E02D0994F894FFCFF7
:100FBE00FF0000000088048D00EF01EE01566F74F3
:100FCE00696E67204D616368696E6500414243003A
:100FDE005F5F5F0044454600474849004A4B4C005E
:100FEE004142432077696E73207769746800766F8B
:100FFE00746573004445462077696E732077697473
:10100E0068004748492077696E73207769746800D5
:10101E004A4B4C2077696E732077697468002020E4
:10102E0020546965205570204F722020200020200A
:10103E00204E6F20526573756C74202020004E6F09
:0C104E0020566F74696E672E2E2E2E0047
:00000001FF
