:100000000A128A11FC2F00308A000408840A820731
:1000100000345534413452345434203443346F3432
:100020006D346D3475346E346934633461347434D2
:1000300069346F346E34203449346E346934743426
:10004000693461346C3469347A346534643400342E
:100050004834693420347434683465347234653417
:040060002034003414
:100F0600F000831203130C1E892F8A2F842F70087A
:100F16009900080083160313071387178130990079
:100F260018151812831203139817831603139816AD
:100F3600831203131816831603131813831203134D
:100F460018130800F200B72F720884000A128A11DB
:100F560003200A128A110A128A1183270A128A1199
:100F66000130F1007108F207720884000A128A1132
:100F760003200A128A11003A031DC22FC32FA72F7E
:100F8600080006308316031386000A128A118D277D
:100F96000A128A1101300A128A11A5270A128A1129
:100FA6000A300A128A1183270A128A11831203133E
:100FB600861CDE2FDF2FD92F20300A128A11A52793
:100FC6000A128A110D30F500AF30F400B630F30086
:100FD600F30BEB2FF40BEB2FF50BEB2F00000A3086
:100FE6000A128A1183270A128A11D92F0A128A1124
:0A0FF600002883010A128A11C42F9B
:02400E007A3FF7
:00000001FF
